:100000000C94DD040C9405050C9405050C94050571
:100010000C9405050C9405050C9405050C94050538
:100020000C9405050C9405050C9405050C94050528
:100030000C9405050C9405050C9405050C94050518
:100040000C94AC0C0C9405050C9405050C9405055A
:100050000C9405050C9405050C9405050C940505F8
:100060000C9405050C94050500000000003E5B4F54
:100070005B3E3E6B4F6B3E1C3E7C3E1C183C7E3C08
:10008000181C577D571C1C5E7F5E1C00183C180016
:10009000FFE7C3E7FF0018241800FFE7DBE7FF30A6
:1000A000483A060E2629792926407F050507407F14
:1000B00005253F5A3CE73C5A7F3E1C1C08081C1C87
:1000C0003E7F14227F22145F5F005F5F06097F017D
:1000D0007F006689956A606060606094A2FFA29468
:1000E00008047E040810207E201008082A1C080836
:1000F0001C2A08081E101010100C1E0C1E0C303884
:100100003E3830060E3E0E06000000000000005F84
:1001100000000007000700147F147F14242A7F2AA0
:100120001223130864623649562050000807030062
:10013000001C2241000041221C002A1C7F1C2A08AE
:10014000083E080800807030000808080808000011
:1001500060600020100804023E5149453E00427F85
:10016000400072494949462141494D331814127FD4
:100170001027454545393C4A494931412111090774
:100180003649494936464949291E000014000000F5
:1001900040340000000814224114141414140041C7
:1001A00022140802015909063E415D594E7C121184
:1001B000127C7F494949363E414141227F414141BC
:1001C0003E7F494949417F090909013E4141517337
:1001D0007F0808087F00417F41002040413F017FA8
:1001E000081422417F404040407F021C027F7F0470
:1001F00008107F3E4141413E7F090909063E4151B9
:10020000215E7F09192946264949493203017F01A8
:10021000033F4040403F1F2040201F3F4038403FA9
:10022000631408146303047804036159494D4300BF
:100230007F4141410204081020004141417F0402F6
:10024000010204404040404000030708002054548D
:1002500078407F284444383844444428384444286B
:100260007F385454541800087E090218A4A49C78BE
:100270007F0804047800447D40002040403D007F1A
:100280001028440000417F40007C047804787C08FA
:100290000404783844444438FC18242418182424CE
:1002A00018FC7C08040408485454542404043F44B3
:1002B000243C4040207C1C2040201C3C4030403CE2
:1002C00044281028444C9090907C4464544C440042
:1002D00008364100000077000000413608000201A6
:1002E0000204023C2623263C1EA1A161123A404092
:1002F000207A38545455592155557941225454780F
:1003000042215554784020545579400C1E527212A7
:100310003955555559395454545939555454580030
:1003200000457C410002457D420001457C407D1234
:1003300011127DF0282528F07C5455450020545496
:100340007C547C0A097F4932494949323A44444441
:100350003A324A4848303A4141217A3A424020787C
:10036000009DA0A07D3D4242423D3D4040403D3C7D
:1003700024FF2424487E4943662B2FFC2F2BFF09A2
:1003800029F620C0887E0903205454794100004496
:100390007D413048484A32384040227A007A0A0A81
:1003A000727D0D19317D2629292F282629292926F4
:1003B00030484D4020380808080808080808382F39
:1003C00010C8ACBA2F102834FA00007B00000814C3
:1003D0002A142222142A14085500550055AA55AA99
:1003E00055AAFF55FF55FF000000FF00101010FF39
:1003F00000141414FF001010FF00FF1010F010F094
:10040000141414FC001414F700FF0000FF00FF1484
:1004100014F404FC141417101F10101F101F1414D0
:10042000141F00101010F0000000001F101010101A
:100430001F10101010F010000000FF10101010100E
:1004400010101010FF10000000FF140000FF00FF4C
:1004500000001F10170000FC04F4141417101714E8
:1004600014F404F40000FF00F7141414141414140A
:10047000F700F7141414171410101F101F1414147D
:10048000F4141010F010F000001F101F0000001FE7
:1004900014000000FC140000F010F01010FF10FF1A
:1004A000141414FF141010101F00000000F010FFAF
:1004B000FFFFFFFFF0F0F0F0F0FFFFFF0000000093
:1004C00000FFFF0F0F0F0F0F3844443844FC4A4A17
:1004D0004A347E02020606027E027E0263554941CC
:1004E000633844443C04407E201E2006027E020203
:1004F00099A5E7A5991C2A492A1C4C7201724C3017
:100500004A4D4D303048784830BC625A463D3E49ED
:100510004949007E0101017E2A2A2A2A2A44445F91
:10052000444440514A444040444A51400000FF0185
:1005300003E080FF000008086B6B08361236243693
:10054000060F090F060000181800000010100030F8
:1005500040FF0101001F01011E00191D1712003C80
:100560003C3C3C00000000000000000800020100CC
:10057000000304070000000000000000000000006D
:10058000000000000000000000000000000000006B
:10059000000000000000000000000000000000005B
:1005A000000000000000000000000000000000004B
:1005B000000000000000000000000000000000003B
:1005C000000000000000000000000000000000002B
:1005D000000000000000000000000000000000001B
:1005E000000000000000000000000000000000000B
:1005F00000000000000000000000000000000000FB
:1006000000000000000000000000000000000000EA
:1006100000000000000000000000000000000000DA
:1006200000000000000000000000000000000000CA
:1006300000000000000000000000000000000000BA
:1006400000000000000000000000000000000000AA
:10065000000000000000000000000000000000009A
:100660000000001800000000000000000000000072
:10067000000800380000000000000000000000003A
:10068000001E00FDC000030000000000000000008C
:10069000003FFFFFFC00078000000000000000009A
:1006A000003FFFFFFE000F80000000000000000080
:1006B000007FFFFFFE001FC00000000000000000E0
:1006C000007FFFFFFF003FC00000000000000000AF
:1006D00000FFFFFFFF00FFE000000000000000003F
:1006E00000FFFFFFFF01FFE000000000000000002E
:1006F00001FFFFFFFF03FFF000000000000000000B
:1007000003FFFFFFFF87FFF0000000000000000074
:1007100003FFFFFFFFFFFFF00000000000000000EC
:1007200007FFFFFFFFFFFFF00000000000000000D8
:1007300007FFFFFFFFFFFFF80000000000000000C0
:100740000FFFFFFFFFFFFFF80000000000000000A8
:100750000FFFFFFFFFFFFFF8000000000000000098
:100760000FFFFFFFFFFFFFF8000000000000000088
:100770000FFFFFFFFFFFFFF8000000000000000078
:100780000FFFFFFFFFFFFFF8000000000000000068
:100790000FFFFFFFFFFFFFF8000000000000000058
:1007A0000FFFFFFFFFFFFFF8000000000000000048
:1007B0000FFFFFFFFFFFFFF8000000000000000038
:1007C0000FFFFFFFFFFFFFF8000000000000000028
:1007D0000FFFFFFFFFFFFFF0000000000000000020
:1007E00007FFFFFFFFFFFFF0000000000000000018
:1007F00007FFFFFFFFFFFFF0000000000000000008
:1008000003FFFFFFFFFFFFF00000000000000000FB
:1008100003FFFFFFFFFFFFE00000000000000000FB
:1008200001FFFFFFFFFFFFE00000000000000000ED
:1008300000FFFFFFFFFFFFC00000000000000000FE
:10084000007FFFFFFFFFFFC000000000000000006E
:10085000001FFFFFFFFFFF800000000000000000FE
:100860000007FF8FFFFFFF80000000000000000076
:100870000001FE03FFFF0F00000000000000000069
:1008800000000000FFFC000000000000000000006D
:100890000000000030000000000000000000000028
:1008A0000000000000000000000000000000000048
:1008B0000000000000000000000000000000000038
:1008C0000000000000000000000000000000000028
:1008D0000000000000000000000000000000000018
:1008E0000000000000000000000000000000000008
:1008F00000000000000000000000000000000000F8
:1009000000000000000000000000000000000000E7
:1009100000000000000000000000000000000000D7
:1009200000000000000000000000000000000000C7
:1009300000000000000000000000000000000000B7
:1009400000000000000000000000000000000000A7
:100950000000000000000000000000000000000097
:100960000000000000000000000000000000000087
:100970000000000000000000000000000000000077
:10098000250028002B0000000000240027002A007A
:100990000404040404040404020202020202030325
:1009A000030303030102040810204080010204082D
:1009B0001020010204081020520E11241FBECFEF98
:1009C000D8E0DEBFCDBF13E0A0E0B1E0EEE1FDE195
:1009D00002C005900D92A432B107D9F723E0A4E23A
:1009E000B3E001C01D92A335B207E1F714E0CDEDED
:1009F000D4E004C02197FE010E94820ECC3DD107B5
:100A0000C9F70E94F60C0C948D0E0C940000909186
:100A100048039F3F21F4909149039F3F59F128E0FB
:100A200030E040E8E0914F03F09150035081909105
:100A30005203909595239083E0914D03F0914E03DE
:100A400090915103542F582319F05081952B03C0D6
:100A50005081909595239083E0914F03F09150033E
:100A6000508190915203952B9083469521503109E6
:100A7000C9F608958EBD00000DB407FEFDCF8EB5FA
:100A8000089590E0FC01EC55F64F2491FC01E057ED
:100A9000F64F8491882399F090E0880F991FFC010C
:100AA000EA57F64FA591B491FC01E458F64F8591B1
:100AB00094918FB7F894EC91E22BEC938FBF08954B
:100AC00008950895CF92DF92EF92FF920F931F93B4
:100AD000CF93DF936C017A018B01C0E0D0E0CE159B
:100AE000DF0589F0D8016D918D01D601ED91FC9162
:100AF0000190F081E02DC6010995892B11F47E014A
:100B000002C02196ECCFC701DF91CF911F910F91C9
:100B1000FF90EF90DF90CF90089590E0FC01E859AE
:100B2000FA4F3491FC01EC55F64F2491FC01E0574B
:100B3000F64FE491EE2309F43BC0332339F133300F
:100B400091F038F43130A9F0323001F584B58F7D61
:100B500012C0373091F03830A1F03430B9F48091C0
:100B600080008F7D03C0809180008F77809380000C
:100B70000DC084B58F7784BD09C08091B0008F7798
:100B800003C08091B0008F7D8093B000F0E0EE0F45
:100B9000FF1FE458F64FA591B4918FB7F894EC91EC
:100BA000611103C020952E2301C02E2B2C938FBFE3
:100BB0000895CF93C82F60E080914A030E948D056D
:100BC00080914C0318161CF460E00E948D058C2F58
:100BD0000E94070580914C03181624F461E0CF9120
:100BE0000C948D05CF910895EF92FF920F931F9370
:100BF000CF9380E0E82E81E0F82EC0E08C2F806457
:100C00000E94D90580E80E94D90561E080914A03DD
:100C10000E948D0580914C0318161CF460E00E9420
:100C20008D0500E010E0F701E00FF11F80810E94C8
:100C300007050F5F1F4F04351105A9F780914C037D
:100C400018161CF461E00E948D05CF5F84E5E80E64
:100C5000F11CC63099F680E4CF911F910F91FF905F
:100C6000EF900C94D9053FB7F894809129039091A7
:100C70002A03A0912B03B0912C0326B5A89B05C095
:100C80002F3F19F00196A11DB11D3FBFBA2FA92F0B
:100C9000982F8827820F911DA11DB11DBC01CD0188
:100CA00042E0660F771F881F991F4A95D1F7089574
:100CB0008F929F92AF92BF92CF92DF92EF92FF926C
:100CC0006B017C010E9433064B015C01C114D1040D
:100CD000E104F104F1F00E943306DC01CB01881934
:100CE0009909AA09BB09883E9340A105B10570F393
:100CF00021E0C21AD108E108F10888EE880E83E0ED
:100D0000981EA11CB11CC114D104E104F10419F70F
:100D1000DDCFFF90EF90DF90CF90BF90AF909F908E
:100D20008F900895FC0177FD68C0808591856817D4
:100D300079070CF062C057FD60C082859385481723
:100D400059070CF05AC08589823059F08330B1F0D0
:100D50008130D1F48FE290E0861B970BBA01AC0191
:100D600013C083E590E0FC01E61BF70BBF018FE2A7
:100D700090E0FC01E41BF50BAF0106C083E590E0B9
:100D8000841B950BAB01BC0164357105B0F5403394
:100D9000510598F5CA01E3E095958795EA95E1F745
:100DA00047705527232BA1F024E5289FF001299FA8
:100DB000F00D11246E0F7F1FFB01E050FF4F81E00B
:100DC00090E001C0880F4A95EAF79081892B14C002
:100DD00024E5289FF001299FF00D11246E0F7F1F3D
:100DE000FB01E050FF4F81E090E001C0880F4A9581
:100DF000EAF7809590818923808308950895FC0106
:100E00006370658B8481958126813781613039F0EB
:100E1000633029F09187808733872287089531874F
:100E200020879387828708952F923F924F925F92F7
:100E30006F927F928F929F92AF92BF92CF92DF92EA
:100E4000EF92FF920F931F93CF93DF93CDB7DEB74F
:100E50006C970FB6F894DEBF0FBECDBF9C8F8B8F03
:100E60005B011A011F830E833701C982DC0158968A
:100E70004D915C9159974115510509F0E5C01896BF
:100E80008D919C911997681779070CF0CAC11A9631
:100E90008D919C911B97281639060CF0C2C18C2CA1
:100EA000912CFB0136E0C39EE00DF11D1124FB8760
:100EB000EA871E161F060CF0B4C1C40133E0880F88
:100EC000991F3A95E1F79D878C87820D931D18161F
:100ED00019060CF0A6C157968C91811103C0203BD6
:100EE00008F02F5FAB8DBC8DED91FC9111970284C2
:100EF000F385E02DCD012A8F09952A8DB5E02B9F32
:100F000090011124F5013596FF87EE87BB82AA82F6
:100F10002501A9014A195B09598B488BC101089623
:100F20009B8B8A8BE889F989E40DF51DE859FF4F01
:100F30009491988761013D822C82A885A0FF13C0FF
:100F4000AB8DBC8DED91FC91B981B13031F404844D
:100F5000F585E02D2E813F8116C00684F785E02DB2
:100F6000EE80FF801AC0EE81FF816E167F06F1F0E1
:100F7000AB8DBC8DED91FC91B981B13051F40484FD
:100F8000F585E02D9301A601B2018B8D9C8D09950D
:100F90000DC00684F785E02D7301840194014C8116
:100FA0005D816A817B818B8D9C8D0995E885E695B5
:100FB000E887FFEFCF1ADF0A2C813D81280D391D0C
:100FC0003D832C834A895B89C416D50609F0B5CFC9
:100FD0005FEF451A550A8A819B81880D991D9B8375
:100FE0008A83AE85BF854A165B0609F09BCFEE81EA
:100FF000FF816E167F0609F4F2C0EB8DFC8DA08197
:10100000B181F981F13079F4B5016B5F7F4F509672
:10101000ED91FC915197830128E030E0A1018B8D87
:101020009C8D0995DCC06A857B85681979091E96B7
:10103000ED91FC911F9773010C851D859401A10111
:101040008B8D9C8D0995CBC0FA0134969491329783
:1010500065917491291BCB01B7E02B9F800D911DE9
:101060001124FA01259134913B8B2A8BFC01459187
:1010700054915B834A83FC013296C490319654911B
:101080005E87329614913196D4908981823058F0DF
:10109000612E012E000C7708AD2D0D2C000CBB0B22
:1010A000B987A88704C019861886612C712CAB8D6E
:1010B000BC8DED91FC9111970284F385E02DCD015B
:1010C0000995B9818B2E912C689CC001699C900D6B
:1010D000789C900D1124FC01EA0DFB1DFD87EC8727
:1010E0001C82712C612CE12F110FFF0B95012E0F2B
:1010F0003F1F3B872A87AC0CB11CA5014E0F5F1F19
:101100005F8B4E8BC1018D0D911DD7FC9A95998FE8
:10111000888F4E85641608F062C0862D90E0488561
:101120005985480F591F489D9001499D300D589D84
:10113000300D1124D901A20DB31DB98BA88BAA843F
:10114000BB844C845D84DC80BA85DB1AE88DF98D24
:10115000E80FF91FFD8BEC8B8D2D8A0D2E893F89B1
:10116000A216B306B9F1877061F48A819B8101965A
:10117000EA89FB89AA81BB81EA0FFB1F74909B83DC
:101180008A8377FE20C0AB8DBC8DED91FC91B98137
:10119000B13061F40484F585E02D2E813F814C89C6
:1011A0005D89B5018B8D9C8D09950DC00684F785F1
:1011B000E02DEE80FF808401940148895989B201B5
:1011C0008B8D9C8D0995770CEFEFAE1ABE0A480CFB
:1011D000591CC2CF3C813C0D3C8363949ACFAB8DAC
:1011E000BC8DED91FC9111970688F789E02DCD011A
:1011F0006C960FB6F894DEBF0FBECDBFDF91CF91D6
:101200001F910F91FF90EF90DF90CF90BF90AF9024
:101210009F908F907F906F905F904F903F902F9016
:1012200009946C960FB6F894DEBF0FBECDBFDF9168
:10123000CF911F910F91FF90EF90DF90CF90BF90D3
:10124000AF909F908F907F906F905F904F903F9066
:101250002F900895AF92BF92CF92EF92FF920F938B
:101260001F93CF93DF93EC01262F888D998D0097E4
:1012700009F040C06A3059F41D861C862C898E8581
:101280009F8538E0239F800D911D112441C06D3052
:1012900009F4AAC08E898823C1F03C898C859D857C
:1012A00046E0349F800D911D1124488559854817CB
:1012B00059075CF41D861C868E859F8548E0349F07
:1012C000800D911D11249F878E87EA88FB880889ED
:1012D00019894E855F856C857D85CC88CE010E94FD
:1012E00014072C898C859D8536E0239F800D911DE8
:1012F000112442C06A3079F41D861C862C89FC01B9
:101300003696E4918E859F852E9F800D911D112428
:101310009F878E8769C06D3009F466C0FC013496E2
:101320003491631708F460C03196E491E61708F42D
:101330005BC0FC013296A590B490462F50E0431B51
:10134000510937E0349FB001359F700D1124A60E6E
:10135000B71EF501329634913196E491332311F0A2
:10136000E1110DC0F5013496E4912C898C859D85A1
:10137000E29F800D911D11249D878C8735C0F5015A
:10138000359644915E89552311F16C89E32FF0E085
:10139000E40FF11D47FDFA956E9FD0016F9FB00DD0
:1013A00011244C855D854A0F5B1FE885F985E4179C
:1013B000F5076CF41D861C86FC013696E4918E853B
:1013C0009F856E9F800D911D11249F878E87EA88CF
:1013D000FB88088919894E855F856C857D85CC8859
:1013E000CE010E941407BECF81E090E0DF91CF9143
:1013F0001F910F91FF90EF90CF90BF90AF90089505
:101400006F927F928F929F92AF92BF92CF92DF9214
:10141000EF92FF920F931F93CF93DF93EC014B0159
:101420005A0169013801E881F9810284F385E02DD0
:101430000995E881F9810288F389E02D87019601F9
:10144000A501B401CE010995E881F981A501460DF8
:10145000571D415051090288F389E02D9601B401CE
:10146000CE010995E881F9810088F189E02D930189
:10147000A501B401CE010995E881F981C80CD91CF8
:10148000B601615071090088F189E02D9301A50131
:10149000CE010995E881F9810688F789E02DCE0112
:1014A000DF91CF911F910F91FF90EF90DF90CF9040
:1014B000BF90AF909F908F907F906F900994CF9244
:1014C000DF92EF92FF920F931F93CF93DF9300D0A1
:1014D00000D000D0CDB7DEB76C01DC01ED91FC91FE
:1014E0006217730789F4041715072CF4942F852FBE
:1014F000A801092F182F041B150B98012F5F3F4FD0
:10150000048CF58DE02D12C04017510709F5261700
:1015100037072CF4962F872FB901292F382F261B38
:10152000370B2F5F3F4F068CF78DE02D8701C601EB
:10153000099526960FB6F894DEBF0FBECDBFDF919A
:10154000CF911F910F91FF90EF90DF90CF90089572
:101550000284F385E02D2D833E834B835C83698376
:101560007A830995D601ED91FC910488F589E02DE7
:101570002D813E814B815C8169817A81C60109950B
:10158000D601ED91FC910688F789E02DC6012696DB
:101590000FB6F894DEBF0FBECDBFDF91CF911F9184
:1015A0000F91FF90EF90DF90CF900994EF92FF9210
:1015B0000F931F93DC01ED91FC9111971A960D91F9
:1015C0001C911B9718962D913C91199700A0F1A1A1
:1015D000E02D7B0140E050E060E070E009951F9154
:1015E0000F91FF90EF9008954F925F926F927F92CC
:1015F0008F929F92AF92BF92CF92DF92EF92FF9223
:101600000F931F93CF93DF9300D0CDB7DEB76C015C
:101610005A0139014801DC01ED91FC910284F38506
:10162000E02D69837A8309956981462E7A81572E48
:10163000640C751CD601ED91FC91461457046CF4B2
:101640000088F189E02D87019401A501B201C6014E
:101650000995BFEF4B1A5B0AEDCF0688F789E02D9D
:10166000C6010F900F90DF91CF911F910F91FF90C6
:10167000EF90DF90CF90BF90AF909F908F907F9032
:101680006F905F904F900994AF92BF92CF92DF928C
:10169000EF92FF920F931F93CF93DF9300D000D070
:1016A000CDB7DEB75C016901DC01ED91FC910284EC
:1016B000F385E02D4B835C8369837A830995D5019B
:1016C000ED91FC9169817A819B012C0D3D1D21508A
:1016D00031090488F589E02D78014B815C818A010C
:1016E000C5010995D501ED91FC910688F789E02D9A
:1016F000C5010F900F900F900F90DF91CF911F9128
:101700000F91FF90EF90DF90CF90BF90AF90099432
:10171000AF92BF92CF92DF92EF92FF920F931F93FF
:10172000CF93DF9300D000D0CDB7DEB75C01690165
:10173000DC01ED91FC910284F385E02D4B835C8309
:1017400069837A830995D501ED91FC914B815C8188
:10175000C40ED51EB1E0CB1AD1080488F589E02D5E
:101760007801860169817A819B01C5010995D501BE
:10177000ED91FC910688F789E02DC5010F900F903F
:101780000F900F90DF91CF911F910F91FF90EF90ED
:10179000DF90CF90BF90AF900994EF92FF920F939C
:1017A0001F93DC01ED91FC9100A0F1A1E02D0995C2
:1017B0001F910F91FF90EF9008950F931F93DC01FD
:1017C000ED91FC91068CF78DE02D09951F910F91FD
:1017D00008950F931F93DC01ED91FC91048CF58D1E
:1017E000E02D09951F910F910895DC01ED91FC9179
:1017F0000084F185E02D09942F923F924F925F92E1
:101800006F927F928F929F92AF92BF92CF92DF9210
:10181000EF92FF920F931F93CF93DF9300D01F920D
:10182000CDB7DEB74C017B836A836A01590117018A
:101830009801241B350B37FF03C0319521953109E1
:10184000C5014A815B81841B950B97FF03C091956D
:101850008195910951E059838217930714F01982F9
:101860000BC09A2D8B2D5801092F182F9A818B812F
:10187000DB82CA82C92ED82E8A819B81A816B9061E
:101880005CF49C2D8D2D6801092F182F9A818B8176
:10189000BB82AA82A92EB82E2501AA81BB814A1A31
:1018A0005B0A38016C187D0877FE03C0719461945F
:1018B0007108720157FE03C0BFEFEB1AFB0AF594E3
:1018C000E794C016D1061CF00FEF1FEF1FC001E018
:1018D00010E01CC0D401ED91FC91B9810484F58520
:1018E000E02D9101BB23C1F04A815B81B601C401A7
:1018F0000995E618F708F7FE04C0C00ED11EE40CE7
:10190000F51CEA81FB813196FB83EA834A815B8186
:10191000A416B506FCF604C0A6016A817B81E7CF58
:101920000F900F900F90DF91CF911F910F91FF902B
:10193000EF90DF90CF90BF90AF909F908F907F906F
:101940006F905F904F903F902F900895089580E0A2
:1019500090E008950E94880E1F920F920FB60F928A
:1019600011242F933F938F939F93AF93BF938091B5
:10197000250390912603A0912703B091280330916D
:10198000240323E0230F2D3720F40196A11DB11D60
:1019900005C026E8230F0296A11DB11D2093240344
:1019A0008093250390932603A0932703B0932803E5
:1019B0008091290390912A03A0912B03B0912C03CD
:1019C0000196A11DB11D8093290390932A03A09332
:1019D0002B03B0932C03BF91AF919F918F913F91B7
:1019E0002F910F900FBE0F901F901895789484B58B
:1019F000826084BD84B5816084BD85B5826085BD0B
:101A000085B5816085BD80916E00816080936E0098
:101A1000109281008091810082608093810080918A
:101A2000810081608093810080918000816080933B
:101A300080008091B10084608093B1008091B000FB
:101A400081608093B00080917A00846080937A00F6
:101A500080917A00826080937A0080917A00816020
:101A600080937A0080917A00806880937A00109247
:101A7000C100809148038F3F29F4909149039F3F13
:101A800009F4D3C00E944105809149030E94410599
:101A900080914903082E000C990BFC01E057F64F8A
:101AA000E491F0E0EE0FFF1FE458F64F25913491DA
:101AB0003093500320934F03FC01EC55F64FE49113
:101AC000E093520380914803082E000C990BFC010F
:101AD000E057F64FE491F0E0EE0FFF1FE458F64FA9
:101AE0002591349130934E0320934D03FC01EC5526
:101AF000F64FE491E093510380914A030E9441051F
:101B000080914B03181614F40E94410580914C03F8
:101B1000181614F40E94410580914B03181674F4B2
:101B200060E00E948D0564EF71E080E090E00E942B
:101B3000580661E080914B030E948D0581E20E946E
:101B4000D90584E10E94D90588EA0E94D90580E27E
:101B50000E94D9058CE00E94D9050E94F40581E21B
:101B60000E94D9058CEB0E94D90580E20E94D9051C
:101B70000E94F40561E070E080E090E00E94580669
:101B800088EF91E0E0E0F1E0DF019C011D9221503F
:101B90003040E1F710923B0310923A0310923D035C
:101BA00010923C0350E0C52E50E0D52EE12CF12CD4
:101BB000B12C06EF1FEFC0E0D0E0CE01877099276F
:101BC000892B11F0BB0C0BC0FE0143E0F595E795A6
:101BD0004A95E1F7EE0DFF1DE458FA4FB490B7FEB9
:101BE0000AC021E030E0A801BE01645171098EE213
:101BF00093E00E94F50B2196C038D105F1F60F5FF6
:101C00001F4F30E1E30EF11C06331105A1F60E94CF
:101C1000F40560E47FE180E090E00E945806C11482
:101C2000D10421F20E940000C1CFCFB7F894809177
:101C30002D03811124C0EAE9F9E08491EEEAF9E08C
:101C40009491E82FF0E0EE0FFF1FEA57F64FA591B1
:101C5000B491EC91E92321F461E08AE00E948D05C2
:101C60008AE00E9441058CB580618CBD8CB5806492
:101C70008CBD8DE00E9441058BE00E944105809162
:101C80002D038F5F80932D03CFBF8CB58C7F8CBDD0
:101C90008DB58E7F8DBD8CB5837F8CBD8CB58F7DD2
:101CA0008CBD2ACFEEE2F3E01382128224E530E00D
:101CB0003583248380E390E0978386833187208770
:101CC00093878287158A158614861786168681E083
:101CD000848B2FEF3FEF338B228B318B208B868BC6
:101CE000178A118E108E8CEF92E09183808384E0AE
:101CF000828F83E0838F85E0848F86E0858F87E005
:101D0000868F0895EE0FFF1F0590F491E02D099442
:0E1D100081E090E0F8940C948D0EF894FFCFD3
:101D1E0000000000000000000000000000000000B5
:101D2E0000000000000000000000000000000000A5
:101D3E00000000000000C0E0F0F8FCFCFEFFFCE03C
:101D4E000000000000000000000000000000000085
:101D5E000000000000000000000000000000000075
:101D6E000000000000000000000000000000000065
:101D7E000000000000F8F8F8F8F8F8F8F8F8F8F8AD
:101D8E00F8F0F0E0E0C080C0FCFFFFFFFF7F3F7F78
:101D9E00FFFFFFFFFF00000000000000000000003A
:101DAE000000000000000000000000000000000025
:101DBE000000000000000000000000000000000015
:101DCE00000000000000000000000F1F3F7FFFFF1B
:101DDE00FFFFFFFFFFFFE7C7C7878F9F9FFFFFFF35
:101DEE00C1C0E0FCFFFFFFFFFFFCFCFCFCFEFEFEA3
:101DFE00FCFCF8F8F0E0C0C000000000000000009D
:101E0E0000000000000000000000000000000000C4
:101E1E0000000000000000000000000000000000B4
:101E2E000080C0E0F1FBFFFFFFFFFF7F1F0F0F875A
:101E3E00E7FFFFFF1F1F3FF9F8F8F8F8F8F8FDFF6E
:101E4E00FFFFFFFFFFFFFFFF7F3F0F0701000000B7
:101E5E000000000000000000000000000000000074
:101E6E000000000000000000000000000000000064
:101E7E00000000F0FEFFFFFFFFFFFFFFFFFFFFFE72
:101E8E007E3F3F0F1FFFFFFFFCF0E0F1FFFFFFFF64
:101E9E00FFFCF00101010101010101000000000041
:101EAE000000000000000000000000000000000024
:101EBE000000000000000000000000000000000014
:101ECE0000000000000000030303030303030301EB
:101EDE0001010100000000000000030F1F3F7F7F83
:101EEE00FFFFFFFF7F7F1F030000000000000000C8
:101EFE0000000000000000000000000000000000D4
:101F0E000000000000000000000000002A09620529
:101F1E00A70CA60C92066105F50BCD0BE90BDD0B9C
:101F2E00FC0B6005FF06FE06880B440BF40AD60A6E
:041F3E005F0A000A2C
:107E0000112484B714BE81FFF0D085E080938100F7
:107E100082E08093C00088E18093C10086E0809377
:107E2000C20080E18093C4008EE0C9D0259A86E02C
:107E300020E33CEF91E0309385002093840096BBD3
:107E4000B09BFECF1D9AA8958150A9F7CC24DD24C4
:107E500088248394B5E0AB2EA1E19A2EF3E0BF2EE7
:107E6000A2D0813461F49FD0082FAFD0023811F036
:107E7000013811F484E001C083E08DD089C08234E0
:107E800011F484E103C0853419F485E0A6D080C0E4
:107E9000853579F488D0E82EFF2485D0082F10E0AE
:107EA000102F00270E291F29000F111F8ED06801E7
:107EB0006FC0863521F484E090D080E0DECF843638
:107EC00009F040C070D06FD0082F6DD080E0C81688
:107ED00080E7D80618F4F601B7BEE895C0E0D1E017
:107EE00062D089930C17E1F7F0E0CF16F0E7DF06D8
:107EF00018F0F601B7BEE89568D007B600FCFDCFD4
:107F0000A601A0E0B1E02C9130E011968C91119780
:107F100090E0982F8827822B932B1296FA010C0160
:107F200087BEE89511244E5F5F4FF1E0A038BF0790
:107F300051F7F601A7BEE89507B600FCFDCF97BE46
:107F4000E89526C08437B1F42ED02DD0F82E2BD052
:107F50003CD0F601EF2C8F010F5F1F4F84911BD097
:107F6000EA94F801C1F70894C11CD11CFA94CF0C13
:107F7000D11C0EC0853739F428D08EE10CD085E9AC
:107F80000AD08FE07ACF813511F488E018D01DD067
:107F900080E101D065CF982F8091C00085FFFCCF94
:107FA0009093C60008958091C00087FFFCCF809118
:107FB000C00084FD01C0A8958091C6000895E0E648
:107FC000F0E098E1908380830895EDDF803219F02E
:107FD00088E0F5DFFFCF84E1DECF1F93182FE3DFCA
:107FE0001150E9F7F2DF1F91089580E0E8DFEE27F6
:047FF000FF270994CA
:027FFE00040479
:0400000300007E007B
:00000001FF
